{
  "_format": "hh-sol-artifact-1",
  "contractName": "EtherLotto",
  "sourceName": "contracts/EtherLotto.sol",
  "abi": [
    {
      "inputs": [],
      "stateMutability": "nonpayable",
      "type": "constructor"
    },
    {
      "anonymous": false,
      "inputs": [
        {
          "indexed": true,
          "internalType": "address",
          "name": "owner",
          "type": "address"
        },
        {
          "indexed": true,
          "internalType": "address",
          "name": "approved",
          "type": "address"
        },
        {
          "indexed": true,
          "internalType": "uint256",
          "name": "tokenId",
          "type": "uint256"
        }
      ],
      "name": "Approval",
      "type": "event"
    },
    {
      "anonymous": false,
      "inputs": [
        {
          "indexed": true,
          "internalType": "address",
          "name": "owner",
          "type": "address"
        },
        {
          "indexed": true,
          "internalType": "address",
          "name": "operator",
          "type": "address"
        },
        {
          "indexed": false,
          "internalType": "bool",
          "name": "approved",
          "type": "bool"
        }
      ],
      "name": "ApprovalForAll",
      "type": "event"
    },
    {
      "anonymous": false,
      "inputs": [
        {
          "indexed": false,
          "internalType": "uint256",
          "name": "",
          "type": "uint256"
        },
        {
          "indexed": false,
          "internalType": "uint256",
          "name": "",
          "type": "uint256"
        },
        {
          "indexed": false,
          "internalType": "uint256",
          "name": "",
          "type": "uint256"
        }
      ],
      "name": "Open",
      "type": "event"
    },
    {
      "anonymous": false,
      "inputs": [
        {
          "indexed": true,
          "internalType": "address",
          "name": "previousOwner",
          "type": "address"
        },
        {
          "indexed": true,
          "internalType": "address",
          "name": "newOwner",
          "type": "address"
        }
      ],
      "name": "OwnershipTransferred",
      "type": "event"
    },
    {
      "anonymous": false,
      "inputs": [
        {
          "indexed": true,
          "internalType": "address",
          "name": "from",
          "type": "address"
        },
        {
          "indexed": true,
          "internalType": "address",
          "name": "to",
          "type": "address"
        },
        {
          "indexed": true,
          "internalType": "uint256",
          "name": "tokenId",
          "type": "uint256"
        }
      ],
      "name": "Transfer",
      "type": "event"
    },
    {
      "inputs": [
        {
          "internalType": "address",
          "name": "to",
          "type": "address"
        },
        {
          "internalType": "uint256",
          "name": "tokenId",
          "type": "uint256"
        }
      ],
      "name": "approve",
      "outputs": [],
      "stateMutability": "nonpayable",
      "type": "function"
    },
    {
      "inputs": [
        {
          "internalType": "address",
          "name": "",
          "type": "address"
        }
      ],
      "name": "awards",
      "outputs": [
        {
          "internalType": "uint256",
          "name": "",
          "type": "uint256"
        }
      ],
      "stateMutability": "view",
      "type": "function"
    },
    {
      "inputs": [
        {
          "internalType": "address",
          "name": "owner",
          "type": "address"
        }
      ],
      "name": "balanceOf",
      "outputs": [
        {
          "internalType": "uint256",
          "name": "",
          "type": "uint256"
        }
      ],
      "stateMutability": "view",
      "type": "function"
    },
    {
      "inputs": [
        {
          "internalType": "uint256",
          "name": "number",
          "type": "uint256"
        }
      ],
      "name": "buyLottery",
      "outputs": [],
      "stateMutability": "payable",
      "type": "function"
    },
    {
      "inputs": [
        {
          "internalType": "uint256",
          "name": "tokenId",
          "type": "uint256"
        }
      ],
      "name": "getApproved",
      "outputs": [
        {
          "internalType": "address",
          "name": "",
          "type": "address"
        }
      ],
      "stateMutability": "view",
      "type": "function"
    },
    {
      "inputs": [
        {
          "internalType": "address",
          "name": "owner",
          "type": "address"
        },
        {
          "internalType": "address",
          "name": "operator",
          "type": "address"
        }
      ],
      "name": "isApprovedForAll",
      "outputs": [
        {
          "internalType": "bool",
          "name": "",
          "type": "bool"
        }
      ],
      "stateMutability": "view",
      "type": "function"
    },
    {
      "inputs": [],
      "name": "name",
      "outputs": [
        {
          "internalType": "string",
          "name": "",
          "type": "string"
        }
      ],
      "stateMutability": "view",
      "type": "function"
    },
    {
      "inputs": [],
      "name": "owner",
      "outputs": [
        {
          "internalType": "address",
          "name": "",
          "type": "address"
        }
      ],
      "stateMutability": "view",
      "type": "function"
    },
    {
      "inputs": [
        {
          "internalType": "uint256",
          "name": "tokenId",
          "type": "uint256"
        }
      ],
      "name": "ownerOf",
      "outputs": [
        {
          "internalType": "address",
          "name": "",
          "type": "address"
        }
      ],
      "stateMutability": "view",
      "type": "function"
    },
    {
      "inputs": [
        {
          "internalType": "address",
          "name": "dest",
          "type": "address"
        }
      ],
      "name": "payments",
      "outputs": [
        {
          "internalType": "uint256",
          "name": "",
          "type": "uint256"
        }
      ],
      "stateMutability": "view",
      "type": "function"
    },
    {
      "inputs": [
        {
          "internalType": "uint256",
          "name": "",
          "type": "uint256"
        }
      ],
      "name": "periods",
      "outputs": [
        {
          "internalType": "uint256",
          "name": "id",
          "type": "uint256"
        },
        {
          "internalType": "uint256",
          "name": "code",
          "type": "uint256"
        }
      ],
      "stateMutability": "view",
      "type": "function"
    },
    {
      "inputs": [
        {
          "internalType": "address payable",
          "name": "payee",
          "type": "address"
        }
      ],
      "name": "receiveAward",
      "outputs": [],
      "stateMutability": "nonpayable",
      "type": "function"
    },
    {
      "inputs": [
        {
          "internalType": "uint256",
          "name": "id",
          "type": "uint256"
        },
        {
          "internalType": "address payable",
          "name": "payee",
          "type": "address"
        }
      ],
      "name": "redeem",
      "outputs": [],
      "stateMutability": "nonpayable",
      "type": "function"
    },
    {
      "inputs": [],
      "name": "renounceOwnership",
      "outputs": [],
      "stateMutability": "nonpayable",
      "type": "function"
    },
    {
      "inputs": [
        {
          "internalType": "address",
          "name": "from",
          "type": "address"
        },
        {
          "internalType": "address",
          "name": "to",
          "type": "address"
        },
        {
          "internalType": "uint256",
          "name": "tokenId",
          "type": "uint256"
        }
      ],
      "name": "safeTransferFrom",
      "outputs": [],
      "stateMutability": "nonpayable",
      "type": "function"
    },
    {
      "inputs": [
        {
          "internalType": "address",
          "name": "from",
          "type": "address"
        },
        {
          "internalType": "address",
          "name": "to",
          "type": "address"
        },
        {
          "internalType": "uint256",
          "name": "tokenId",
          "type": "uint256"
        },
        {
          "internalType": "bytes",
          "name": "data",
          "type": "bytes"
        }
      ],
      "name": "safeTransferFrom",
      "outputs": [],
      "stateMutability": "nonpayable",
      "type": "function"
    },
    {
      "inputs": [
        {
          "internalType": "address",
          "name": "operator",
          "type": "address"
        },
        {
          "internalType": "bool",
          "name": "approved",
          "type": "bool"
        }
      ],
      "name": "setApprovalForAll",
      "outputs": [],
      "stateMutability": "nonpayable",
      "type": "function"
    },
    {
      "inputs": [
        {
          "internalType": "bytes4",
          "name": "interfaceId",
          "type": "bytes4"
        }
      ],
      "name": "supportsInterface",
      "outputs": [
        {
          "internalType": "bool",
          "name": "",
          "type": "bool"
        }
      ],
      "stateMutability": "view",
      "type": "function"
    },
    {
      "inputs": [],
      "name": "symbol",
      "outputs": [
        {
          "internalType": "string",
          "name": "",
          "type": "string"
        }
      ],
      "stateMutability": "view",
      "type": "function"
    },
    {
      "inputs": [
        {
          "internalType": "uint256",
          "name": "id",
          "type": "uint256"
        }
      ],
      "name": "tokenURI",
      "outputs": [
        {
          "internalType": "string",
          "name": "",
          "type": "string"
        }
      ],
      "stateMutability": "view",
      "type": "function"
    },
    {
      "inputs": [],
      "name": "totalSupply",
      "outputs": [
        {
          "internalType": "uint256",
          "name": "",
          "type": "uint256"
        }
      ],
      "stateMutability": "view",
      "type": "function"
    },
    {
      "inputs": [
        {
          "internalType": "address",
          "name": "from",
          "type": "address"
        },
        {
          "internalType": "address",
          "name": "to",
          "type": "address"
        },
        {
          "internalType": "uint256",
          "name": "tokenId",
          "type": "uint256"
        }
      ],
      "name": "transferFrom",
      "outputs": [],
      "stateMutability": "nonpayable",
      "type": "function"
    },
    {
      "inputs": [
        {
          "internalType": "address",
          "name": "newOwner",
          "type": "address"
        }
      ],
      "name": "transferOwnership",
      "outputs": [],
      "stateMutability": "nonpayable",
      "type": "function"
    },
    {
      "inputs": [
        {
          "internalType": "address payable",
          "name": "payee",
          "type": "address"
        }
      ],
      "name": "withdrawPayments",
      "outputs": [],
      "stateMutability": "nonpayable",
      "type": "function"
    }
  ],
  "bytecode": "0x60a060405260006007553480156200001657600080fd5b506040518060400160405280600b81526020017f4574686572204c6f74746f0000000000000000000000000000000000000000008152506040518060400160405280600381526020017f4c4f5400000000000000000000000000000000000000000000000000000000008152508160009081620000949190620004d3565b508060019081620000a69190620004d3565b505050620000c9620000bd6200017d60201b60201c565b6200018560201b60201c565b604051620000d7906200024b565b604051809103906000f080158015620000f4573d6000803e3d6000fd5b5073ffffffffffffffffffffffffffffffffffffffff1660808173ffffffffffffffffffffffffffffffffffffffff1681525050600066038d7ea4c6800090505b683635c9adc5dea00000811162000176576001600a600083815260200190815260200160002081905550600a816200016e9190620005e9565b905062000135565b506200064a565b600033905090565b6000600660009054906101000a900473ffffffffffffffffffffffffffffffffffffffff16905081600660006101000a81548173ffffffffffffffffffffffffffffffffffffffff021916908373ffffffffffffffffffffffffffffffffffffffff1602179055508173ffffffffffffffffffffffffffffffffffffffff168173ffffffffffffffffffffffffffffffffffffffff167f8be0079c531659141344cd1fd0a4f28419497f9722a3daafe3b4186f6b6457e060405160405180910390a35050565b610ba180620053eb83390190565b600081519050919050565b7f4e487b7100000000000000000000000000000000000000000000000000000000600052604160045260246000fd5b7f4e487b7100000000000000000000000000000000000000000000000000000000600052602260045260246000fd5b60006002820490506001821680620002db57607f821691505b602082108103620002f157620002f062000293565b5b50919050565b60008190508160005260206000209050919050565b60006020601f8301049050919050565b600082821b905092915050565b6000600883026200035b7fffffffffffffffffffffffffffffffffffffffffffffffffffffffffffffffff826200031c565b6200036786836200031c565b95508019841693508086168417925050509392505050565b6000819050919050565b6000819050919050565b6000620003b4620003ae620003a8846200037f565b62000389565b6200037f565b9050919050565b6000819050919050565b620003d08362000393565b620003e8620003df82620003bb565b84845462000329565b825550505050565b600090565b620003ff620003f0565b6200040c818484620003c5565b505050565b5b81811015620004345762000428600082620003f5565b60018101905062000412565b5050565b601f82111562000483576200044d81620002f7565b62000458846200030c565b8101602085101562000468578190505b6200048062000477856200030c565b83018262000411565b50505b505050565b600082821c905092915050565b6000620004a86000198460080262000488565b1980831691505092915050565b6000620004c3838362000495565b9150826002028217905092915050565b620004de8262000259565b67ffffffffffffffff811115620004fa57620004f962000264565b5b620005068254620002c2565b6200051382828562000438565b600060209050601f8311600181146200054b576000841562000536578287015190505b620005428582620004b5565b865550620005b2565b601f1984166200055b86620002f7565b60005b8281101562000585578489015182556001820191506020850194506020810190506200055e565b86831015620005a55784890151620005a1601f89168262000495565b8355505b6001600288020188555050505b505050505050565b7f4e487b7100000000000000000000000000000000000000000000000000000000600052601160045260246000fd5b6000620005f6826200037f565b915062000603836200037f565b9250817fffffffffffffffffffffffffffffffffffffffffffffffffffffffffffffffff04831182151516156200063f576200063e620005ba565b5b828202905092915050565b608051614d77620006746000396000818161091d015281816119e8015261268a0152614d776000f3fe60806040526004361061014b5760003560e01c80637b0e5f56116100b6578063c87b56dd1161006f578063c87b56dd1461048c578063e2982c21146104c9578063e985e9c514610506578063ea4a110414610543578063f2fde38b14610581578063ff2156c5146105aa5761014b565b80637b0e5f561461037e5780637bde82f2146103bb5780638da5cb5b146103e457806395d89b411461040f578063a22cb4651461043a578063b88d4fde146104635761014b565b806331b3eb941161010857806331b3eb941461027257806342842e0e1461029b5780634a26ccf5146102c45780636352211e146102ed57806370a082311461032a578063715018a6146103675761014b565b806301ffc9a71461015057806306fdde031461018d578063081812fc146101b8578063095ea7b3146101f557806318160ddd1461021e57806323b872dd14610249575b600080fd5b34801561015c57600080fd5b5061017760048036038101906101729190613323565b6105c6565b604051610184919061336b565b60405180910390f35b34801561019957600080fd5b506101a26106a8565b6040516101af9190613416565b60405180910390f35b3480156101c457600080fd5b506101df60048036038101906101da919061346e565b61073a565b6040516101ec91906134dc565b60405180910390f35b34801561020157600080fd5b5061021c60048036038101906102179190613523565b610780565b005b34801561022a57600080fd5b50610233610897565b6040516102409190613572565b60405180910390f35b34801561025557600080fd5b50610270600480360381019061026b919061358d565b6108bb565b005b34801561027e57600080fd5b506102996004803603810190610294919061361e565b61091b565b005b3480156102a757600080fd5b506102c260048036038101906102bd919061358d565b6109a9565b005b3480156102d057600080fd5b506102eb60048036038101906102e6919061361e565b6109c9565b005b3480156102f957600080fd5b50610314600480360381019061030f919061346e565b610ae5565b60405161032191906134dc565b60405180910390f35b34801561033657600080fd5b50610351600480360381019061034c919061364b565b610b96565b60405161035e9190613572565b60405180910390f35b34801561037357600080fd5b5061037c610c4d565b005b34801561038a57600080fd5b506103a560048036038101906103a0919061364b565b610c61565b6040516103b29190613572565b60405180910390f35b3480156103c757600080fd5b506103e260048036038101906103dd9190613678565b610c79565b005b3480156103f057600080fd5b506103f9610dea565b60405161040691906134dc565b60405180910390f35b34801561041b57600080fd5b50610424610e14565b6040516104319190613416565b60405180910390f35b34801561044657600080fd5b50610461600480360381019061045c91906136e4565b610ea6565b005b34801561046f57600080fd5b5061048a60048036038101906104859190613859565b610ebc565b005b34801561049857600080fd5b506104b360048036038101906104ae919061346e565b610f1e565b6040516104c09190613416565b60405180910390f35b3480156104d557600080fd5b506104f060048036038101906104eb919061364b565b6119e4565b6040516104fd9190613572565b60405180910390f35b34801561051257600080fd5b5061052d600480360381019061052891906138dc565b611a87565b60405161053a919061336b565b60405180910390f35b34801561054f57600080fd5b5061056a6004803603810190610565919061346e565b611b1b565b60405161057892919061391c565b60405180910390f35b34801561058d57600080fd5b506105a860048036038101906105a3919061364b565b611b3f565b005b6105c460048036038101906105bf919061346e565b611bc2565b005b60007f80ac58cd000000000000000000000000000000000000000000000000000000007bffffffffffffffffffffffffffffffffffffffffffffffffffffffff1916827bffffffffffffffffffffffffffffffffffffffffffffffffffffffff1916148061069157507f5b5e139f000000000000000000000000000000000000000000000000000000007bffffffffffffffffffffffffffffffffffffffffffffffffffffffff1916827bffffffffffffffffffffffffffffffffffffffffffffffffffffffff1916145b806106a157506106a082612217565b5b9050919050565b6060600080546106b790613974565b80601f01602080910402602001604051908101604052809291908181526020018280546106e390613974565b80156107305780601f1061070557610100808354040283529160200191610730565b820191906000526020600020905b81548152906001019060200180831161071357829003601f168201915b5050505050905090565b600061074582612281565b6004600083815260200190815260200160002060009054906101000a900473ffffffffffffffffffffffffffffffffffffffff169050919050565b600061078b82610ae5565b90508073ffffffffffffffffffffffffffffffffffffffff168373ffffffffffffffffffffffffffffffffffffffff16036107fb576040517f08c379a00000000000000000000000000000000000000000000000000000000081526004016107f290613a17565b60405180910390fd5b8073ffffffffffffffffffffffffffffffffffffffff1661081a6122cc565b73ffffffffffffffffffffffffffffffffffffffff1614806108495750610848816108436122cc565b611a87565b5b610888576040517f08c379a000000000000000000000000000000000000000000000000000000000815260040161087f90613aa9565b60405180910390fd5b61089283836122d4565b505050565b7fffffffffffffffffffffffffffffffffffffffffffffffffffffffffffffffff81565b6108cc6108c66122cc565b8261238d565b61090b576040517f08c379a000000000000000000000000000000000000000000000000000000000815260040161090290613b3b565b60405180910390fd5b610916838383612422565b505050565b7f000000000000000000000000000000000000000000000000000000000000000073ffffffffffffffffffffffffffffffffffffffff166351cff8d9826040518263ffffffff1660e01b81526004016109749190613b6a565b600060405180830381600087803b15801561098e57600080fd5b505af11580156109a2573d6000803e3d6000fd5b5050505050565b6109c483838360405180602001604052806000815250610ebc565b505050565b6000600c60003373ffffffffffffffffffffffffffffffffffffffff1673ffffffffffffffffffffffffffffffffffffffff1681526020019081526020016000205411610a4b576040517f08c379a0000000000000000000000000000000000000000000000000000000008152600401610a4290613bd1565b60405180910390fd5b610a9481600c60003373ffffffffffffffffffffffffffffffffffffffff1673ffffffffffffffffffffffffffffffffffffffff16815260200190815260200160002054612688565b6000600c60003373ffffffffffffffffffffffffffffffffffffffff1673ffffffffffffffffffffffffffffffffffffffff16815260200190815260200160002081905550610ae28161091b565b50565b6000806002600084815260200190815260200160002060009054906101000a900473ffffffffffffffffffffffffffffffffffffffff169050600073ffffffffffffffffffffffffffffffffffffffff168173ffffffffffffffffffffffffffffffffffffffff1603610b8d576040517f08c379a0000000000000000000000000000000000000000000000000000000008152600401610b8490613c3d565b60405180910390fd5b80915050919050565b60008073ffffffffffffffffffffffffffffffffffffffff168273ffffffffffffffffffffffffffffffffffffffff1603610c06576040517f08c379a0000000000000000000000000000000000000000000000000000000008152600401610bfd90613ccf565b60405180910390fd5b600360008373ffffffffffffffffffffffffffffffffffffffff1673ffffffffffffffffffffffffffffffffffffffff168152602001908152602001600020549050919050565b610c55612718565b610c5f6000612796565b565b600c6020528060005260406000206000915090505481565b3373ffffffffffffffffffffffffffffffffffffffff16610c9983610ae5565b73ffffffffffffffffffffffffffffffffffffffff1614610cef576040517f08c379a0000000000000000000000000000000000000000000000000000000008152600401610ce690613d3b565b60405180910390fd5b6001600860008481526020019081526020016000206007015414610d48576040517f08c379a0000000000000000000000000000000000000000000000000000000008152600401610d3f90613da7565b60405180910390fd5b6000600860008481526020019081526020016000206009015414610da1576040517f08c379a0000000000000000000000000000000000000000000000000000000008152600401610d9890613e13565b60405180910390fd5b610dc1816008600085815260200190815260200160002060080154612688565b60016008600084815260200190815260200160002060090181905550610de68161091b565b5050565b6000600660009054906101000a900473ffffffffffffffffffffffffffffffffffffffff16905090565b606060018054610e2390613974565b80601f0160208091040260200160405190810160405280929190818152602001828054610e4f90613974565b8015610e9c5780601f10610e7157610100808354040283529160200191610e9c565b820191906000526020600020905b815481529060010190602001808311610e7f57829003601f168201915b5050505050905090565b610eb8610eb16122cc565b838361285c565b5050565b610ecd610ec76122cc565b8361238d565b610f0c576040517f08c379a0000000000000000000000000000000000000000000000000000000008152600401610f0390613b3b565b60405180910390fd5b610f18848484846129c8565b50505050565b6060610f2861328f565b6040518060c0016040528060858152602001614b3b6085913981600060148110610f5557610f54613e33565b5b6020020181905250610f7c6008600085815260200190815260200160002060010154612a24565b81600160148110610f9057610f8f613e33565b5b6020020181905250604051806080016040528060468152602001614ca86046913981600260148110610fc557610fc4613e33565b5b6020020181905250610fec6008600085815260200190815260200160002060020154612a24565b8160036014811061100057610fff613e33565b5b6020020181905250604051806080016040528060468152602001614ab5604691398160046014811061103557611034613e33565b5b60200201819052506001600860008581526020019081526020016000206005015414611096576040518060400160405280600281526020017f4e4f0000000000000000000000000000000000000000000000000000000000008152506110cd565b6040518060400160405280600381526020017f59455300000000000000000000000000000000000000000000000000000000008152505b816005601481106110e1576110e0613e33565b5b60200201819052506040518060800160405280604881526020016149fc604891398160066014811061111657611115613e33565b5b602002018190525061113d6008600085815260200190815260200160002060000154612a24565b8160076014811061115157611150613e33565b5b60200201819052506040518060400160405280600b81526020017f205765693c2f746578743e000000000000000000000000000000000000000000815250816008601481106111a3576111a2613e33565b5b6020020181905250600060086000858152602001908152602001600020600601541461129057604051806080016040528060548152602001614cee60549139816009601481106111f6576111f5613e33565b5b602002018190525061121d6008600085815260200190815260200160002060060154612a24565b81600a6014811061123157611230613e33565b5b60200201819052506040518060400160405280600781526020017f3c2f746578743e0000000000000000000000000000000000000000000000000081525081600b6014811061128357611282613e33565b5b6020020181905250611315565b60405180602001604052806000815250816009601481106112b4576112b3613e33565b5b60200201819052506040518060200160405280600081525081600a601481106112e0576112df613e33565b5b60200201819052506040518060200160405280600081525081600b6014811061130c5761130b613e33565b5b60200201819052505b60016008600085815260200190815260200160002060070154036114db57604051806080016040528060548152602001614c546054913981600c601481106113605761135f613e33565b5b60200201819052506113876008600085815260200190815260200160002060080154612a24565b81600d6014811061139b5761139a613e33565b5b60200201819052506040518060800160405280605b8152602001614bf9605b913981600e601481106113d0576113cf613e33565b5b60200201819052506001600860008581526020019081526020016000206009015414611431576040518060400160405280600281526020017f4e4f000000000000000000000000000000000000000000000000000000000000815250611468565b6040518060400160405280600381526020017f59455300000000000000000000000000000000000000000000000000000000008152505b81600f6014811061147c5761147b613e33565b5b60200201819052506040518060400160405280600781526020017f3c2f746578743e00000000000000000000000000000000000000000000000000815250816010601481106114ce576114cd613e33565b5b60200201819052506115b8565b6040518060200160405280600081525081600c601481106114ff576114fe613e33565b5b60200201819052506040518060200160405280600081525081600d6014811061152b5761152a613e33565b5b60200201819052506040518060200160405280600081525081600e6014811061155757611556613e33565b5b60200201819052506040518060200160405280600081525081600f6014811061158357611582613e33565b5b602002018190525060405180602001604052806000815250816010601481106115af576115ae613e33565b5b60200201819052505b606460086000858152602001908152602001600020600301540361161057604051806060016040528060388152602001614a7d603891398160116014811061160357611602613e33565b5b60200201819052506116a0565b60096008600085815260200190815260200160002060030154111561166957604051806060016040528060398152602001614a44603991398160116014811061165c5761165b613e33565b5b602002018190525061169f565b604051806060016040528060398152602001614bc0603991398160116014811061169657611695613e33565b5b60200201819052505b5b6116bf6008600085815260200190815260200160002060030154612a24565b816012601481106116d3576116d2613e33565b5b60200201819052506040518060400160405280600d81526020017f3c2f746578743e3c2f7376673e000000000000000000000000000000000000008152508160136014811061172557611724613e33565b5b602002018190525060008160006014811061174357611742613e33565b5b60200201518260016014811061175c5761175b613e33565b5b60200201518360026014811061177557611774613e33565b5b60200201518460036014811061178e5761178d613e33565b5b6020020151856004601481106117a7576117a6613e33565b5b6020020151866005601481106117c0576117bf613e33565b5b6020020151876006601481106117d9576117d8613e33565b5b6020020151886007601481106117f2576117f1613e33565b5b60200201518960086014811061180b5761180a613e33565b5b60200201518a60096014811061182457611823613e33565b5b60200201516040516020016118429a99989796959493929190613e9e565b60405160208183030381529060405290508082600a6014811061186857611867613e33565b5b602002015183600b6014811061188157611880613e33565b5b602002015184600c6014811061189a57611899613e33565b5b602002015185600d601481106118b3576118b2613e33565b5b602002015186600e601481106118cc576118cb613e33565b5b602002015187600f601481106118e5576118e4613e33565b5b6020020151886010601481106118fe576118fd613e33565b5b60200201518960116014811061191757611916613e33565b5b60200201518a6012601481106119305761192f613e33565b5b60200201518b60136014811061194957611948613e33565b5b60200201516040516020016119689b9a99989796959493929190613f2a565b604051602081830303815290604052905060006119b561198786612a24565b61199084612b84565b6040516020016119a19291906140cd565b604051602081830303815290604052612b84565b9050806040516020016119c8919061415e565b6040516020818303038152906040529150819350505050919050565b60007f000000000000000000000000000000000000000000000000000000000000000073ffffffffffffffffffffffffffffffffffffffff1663e3a9db1a836040518263ffffffff1660e01b8152600401611a3f91906134dc565b602060405180830381865afa158015611a5c573d6000803e3d6000fd5b505050506040513d601f19601f82011682018060405250810190611a809190614195565b9050919050565b6000600560008473ffffffffffffffffffffffffffffffffffffffff1673ffffffffffffffffffffffffffffffffffffffff16815260200190815260200160002060008373ffffffffffffffffffffffffffffffffffffffff1673ffffffffffffffffffffffffffffffffffffffff16815260200190815260200160002060009054906101000a900460ff16905092915050565b600b6020528060005260406000206000915090508060000154908060010154905082565b611b47612718565b600073ffffffffffffffffffffffffffffffffffffffff168173ffffffffffffffffffffffffffffffffffffffff1603611bb6576040517f08c379a0000000000000000000000000000000000000000000000000000000008152600401611bad90614234565b60405180910390fd5b611bbf81612796565b50565b6001600a60003481526020019081526020016000205414611c18576040517f08c379a0000000000000000000000000000000000000000000000000000000008152600401611c0f906142a0565b60405180910390fd5b60018110158015611c2a575060648111155b611c69576040517f08c379a0000000000000000000000000000000000000000000000000000000008152600401611c609061430c565b60405180910390fd5b6000600b60003481526020019081526020016000206040518060400160405290816000820154815260200160018201548152505090506064816020015103611fef5760006008600060096000348152602001908152602001600020611ccc612d1b565b60648110611cdd57611cdc613e33565b5b015481526020019081526020016000206003015490506000805b6064811015611e2a57600160086000600960003481526020019081526020016000208460648110611d2b57611d2a613e33565b5b01548152602001908152602001600020600501819055508260086000600960003481526020019081526020016000208460648110611d6c57611d6b613e33565b5b01548152602001908152602001600020600601819055508260086000600960003481526020019081526020016000208460648110611dad57611dac613e33565b5b015481526020019081526020016000206003015403611e1757600160086000600960003481526020019081526020016000208460648110611df157611df0613e33565b5b01548152602001908152602001600020600701819055508180611e139061435b565b9250505b8080611e229061435b565b915050611cf7565b50600081605034611e3b91906143a3565b611e45919061442c565b905060005b6064811015611eec57600160086000600960003481526020019081526020016000208460648110611e7e57611e7d613e33565b5b015481526020019081526020016000206007015403611ed9578160086000600960003481526020019081526020016000208460648110611ec157611ec0613e33565b5b01548152602001908152602001600020600801819055505b8080611ee49061435b565b915050611e4a565b506001600b60003481526020019081526020016000206000016000828254611f14919061445d565b925050819055506001600b600034815260200190815260200160002060010181905550600a3402600c60003373ffffffffffffffffffffffffffffffffffffffff1673ffffffffffffffffffffffffffffffffffffffff168152602001908152602001600020600082825401925050819055507f11b31b436792d2e77105df5b9a822dcd56f23ff877fd17c7e4eb3f0dc9b18b86348484604051611fba93929190614491565b60405180910390a1600184600001818151611fd5919061445d565b91508181525050600084602001818152505050505061201b565b60018160200151612000919061445d565b600b6000348152602001908152602001600020600101819055505b600060076000815461202c9061435b565b9190508190559050600060405180610140016040528034815260200160018560000151612059919061445d565b81526020016001856020015161206f919061445d565b81526020018581526020013373ffffffffffffffffffffffffffffffffffffffff168152602001600081526020016000815260200160008152602001600081526020016000815250905080600860008481526020019081526020016000206000820151816000015560208201518160010155604082015181600201556060820151816003015560808201518160040160006101000a81548173ffffffffffffffffffffffffffffffffffffffff021916908373ffffffffffffffffffffffffffffffffffffffff16021790555060a0820151816005015560c0820151816006015560e0820151816007015561010082015181600801556101208201518160090155905050816009600034815260200190815260200160002084602001516064811061219d5761219c613e33565b5b0181905550600a34816121b3576121b26143fd565b5b04600c60006121c0610dea565b73ffffffffffffffffffffffffffffffffffffffff1673ffffffffffffffffffffffffffffffffffffffff168152602001908152602001600020600082825401925050819055506122113383612e1d565b50505050565b60007f01ffc9a7000000000000000000000000000000000000000000000000000000007bffffffffffffffffffffffffffffffffffffffffffffffffffffffff1916827bffffffffffffffffffffffffffffffffffffffffffffffffffffffff1916149050919050565b61228a81612e3b565b6122c9576040517f08c379a00000000000000000000000000000000000000000000000000000000081526004016122c090613c3d565b60405180910390fd5b50565b600033905090565b816004600083815260200190815260200160002060006101000a81548173ffffffffffffffffffffffffffffffffffffffff021916908373ffffffffffffffffffffffffffffffffffffffff160217905550808273ffffffffffffffffffffffffffffffffffffffff1661234783610ae5565b73ffffffffffffffffffffffffffffffffffffffff167f8c5be1e5ebec7d5bd14f71427d1e84f3dd0314c0f7b2291e5b200ac8c7c3b92560405160405180910390a45050565b60008061239983610ae5565b90508073ffffffffffffffffffffffffffffffffffffffff168473ffffffffffffffffffffffffffffffffffffffff1614806123db57506123da8185611a87565b5b8061241957508373ffffffffffffffffffffffffffffffffffffffff166124018461073a565b73ffffffffffffffffffffffffffffffffffffffff16145b91505092915050565b8273ffffffffffffffffffffffffffffffffffffffff1661244282610ae5565b73ffffffffffffffffffffffffffffffffffffffff1614612498576040517f08c379a000000000000000000000000000000000000000000000000000000000815260040161248f9061453a565b60405180910390fd5b600073ffffffffffffffffffffffffffffffffffffffff168273ffffffffffffffffffffffffffffffffffffffff1603612507576040517f08c379a00000000000000000000000000000000000000000000000000000000081526004016124fe906145cc565b60405180910390fd5b612512838383612ea7565b61251d6000826122d4565b6001600360008573ffffffffffffffffffffffffffffffffffffffff1673ffffffffffffffffffffffffffffffffffffffff168152602001908152602001600020600082825461256d91906145ec565b925050819055506001600360008473ffffffffffffffffffffffffffffffffffffffff1673ffffffffffffffffffffffffffffffffffffffff16815260200190815260200160002060008282546125c4919061445d565b92505081905550816002600083815260200190815260200160002060006101000a81548173ffffffffffffffffffffffffffffffffffffffff021916908373ffffffffffffffffffffffffffffffffffffffff160217905550808273ffffffffffffffffffffffffffffffffffffffff168473ffffffffffffffffffffffffffffffffffffffff167fddf252ad1be2c89b69c2b068fc378daa952ba7f163c4a11628f55a4df523b3ef60405160405180910390a4612683838383612eac565b505050565b7f000000000000000000000000000000000000000000000000000000000000000073ffffffffffffffffffffffffffffffffffffffff1663f340fa0182846040518363ffffffff1660e01b81526004016126e291906134dc565b6000604051808303818588803b1580156126fb57600080fd5b505af115801561270f573d6000803e3d6000fd5b50505050505050565b6127206122cc565b73ffffffffffffffffffffffffffffffffffffffff1661273e610dea565b73ffffffffffffffffffffffffffffffffffffffff1614612794576040517f08c379a000000000000000000000000000000000000000000000000000000000815260040161278b9061466c565b60405180910390fd5b565b6000600660009054906101000a900473ffffffffffffffffffffffffffffffffffffffff16905081600660006101000a81548173ffffffffffffffffffffffffffffffffffffffff021916908373ffffffffffffffffffffffffffffffffffffffff1602179055508173ffffffffffffffffffffffffffffffffffffffff168173ffffffffffffffffffffffffffffffffffffffff167f8be0079c531659141344cd1fd0a4f28419497f9722a3daafe3b4186f6b6457e060405160405180910390a35050565b8173ffffffffffffffffffffffffffffffffffffffff168373ffffffffffffffffffffffffffffffffffffffff16036128ca576040517f08c379a00000000000000000000000000000000000000000000000000000000081526004016128c1906146d8565b60405180910390fd5b80600560008573ffffffffffffffffffffffffffffffffffffffff1673ffffffffffffffffffffffffffffffffffffffff16815260200190815260200160002060008473ffffffffffffffffffffffffffffffffffffffff1673ffffffffffffffffffffffffffffffffffffffff16815260200190815260200160002060006101000a81548160ff0219169083151502179055508173ffffffffffffffffffffffffffffffffffffffff168373ffffffffffffffffffffffffffffffffffffffff167f17307eab39ab6107e8899845ad3d59bd9653f200f220920489ca2b5937696c31836040516129bb919061336b565b60405180910390a3505050565b6129d3848484612422565b6129df84848484612eb1565b612a1e576040517f08c379a0000000000000000000000000000000000000000000000000000000008152600401612a159061476a565b60405180910390fd5b50505050565b606060008203612a6b576040518060400160405280600181526020017f30000000000000000000000000000000000000000000000000000000000000008152509050612b7f565b600082905060005b60008214612a9d578080612a869061435b565b915050600a82612a96919061442c565b9150612a73565b60008167ffffffffffffffff811115612ab957612ab861372e565b5b6040519080825280601f01601f191660200182016040528015612aeb5781602001600182028036833780820191505090505b5090505b60008514612b7857600182612b0491906145ec565b9150600a85612b13919061478a565b6030612b1f919061445d565b60f81b818381518110612b3557612b34613e33565b5b60200101907effffffffffffffffffffffffffffffffffffffffffffffffffffffffffffff1916908160001a905350600a85612b71919061442c565b9450612aef565b8093505050505b919050565b606060008251905060008103612bac5760405180602001604052806000815250915050612d16565b60006003600283612bbd919061445d565b612bc7919061442c565b6004612bd391906143a3565b90506000602082612be4919061445d565b67ffffffffffffffff811115612bfd57612bfc61372e565b5b6040519080825280601f01601f191660200182016040528015612c2f5781602001600182028036833780820191505090505b5090506000604051806060016040528060408152602001614afb604091399050600181016020830160005b86811015612cd35760038101905062ffffff818a015116603f8160121c168401518060081b905060ff603f83600c1c1686015116810190508060081b905060ff603f8360061c1686015116810190508060081b905060ff603f831686015116810190508060e01b90508084526004840193505050612c5a565b506003860660018114612ced5760028114612cfd57612d08565b613d3d60f01b6002830352612d08565b603d60f81b60018303525b508484525050819450505050505b919050565b6000606060005b60096000348152602001908152602001600020506064811015612de9578160086000600960003481526020019081526020016000208460648110612d6957612d68613e33565b5b0154815260200190815260200160002060040160009054906101000a900473ffffffffffffffffffffffffffffffffffffffff1673ffffffffffffffffffffffffffffffffffffffff1631604051602001612dc5929190614823565b60405160208183030381529060405291508080612de19061435b565b915050612d22565b5060006064828051906020012060001c612e03919061478a565b905060638111612e135780612e16565b60635b9250505090565b612e37828260405180602001604052806000815250613038565b5050565b60008073ffffffffffffffffffffffffffffffffffffffff166002600084815260200190815260200160002060009054906101000a900473ffffffffffffffffffffffffffffffffffffffff1673ffffffffffffffffffffffffffffffffffffffff1614159050919050565b505050565b505050565b6000612ed28473ffffffffffffffffffffffffffffffffffffffff16613093565b1561302b578373ffffffffffffffffffffffffffffffffffffffff1663150b7a02612efb6122cc565b8786866040518563ffffffff1660e01b8152600401612f1d9493929190614895565b6020604051808303816000875af1925050508015612f5957506040513d601f19601f82011682018060405250810190612f5691906148f6565b60015b612fdb573d8060008114612f89576040519150601f19603f3d011682016040523d82523d6000602084013e612f8e565b606091505b506000815103612fd3576040517f08c379a0000000000000000000000000000000000000000000000000000000008152600401612fca9061476a565b60405180910390fd5b805181602001fd5b63150b7a0260e01b7bffffffffffffffffffffffffffffffffffffffffffffffffffffffff1916817bffffffffffffffffffffffffffffffffffffffffffffffffffffffff191614915050613030565b600190505b949350505050565b61304283836130b6565b61304f6000848484612eb1565b61308e576040517f08c379a00000000000000000000000000000000000000000000000000000000081526004016130859061476a565b60405180910390fd5b505050565b6000808273ffffffffffffffffffffffffffffffffffffffff163b119050919050565b600073ffffffffffffffffffffffffffffffffffffffff168273ffffffffffffffffffffffffffffffffffffffff1603613125576040517f08c379a000000000000000000000000000000000000000000000000000000000815260040161311c9061496f565b60405180910390fd5b61312e81612e3b565b1561316e576040517f08c379a0000000000000000000000000000000000000000000000000000000008152600401613165906149db565b60405180910390fd5b61317a60008383612ea7565b6001600360008473ffffffffffffffffffffffffffffffffffffffff1673ffffffffffffffffffffffffffffffffffffffff16815260200190815260200160002060008282546131ca919061445d565b92505081905550816002600083815260200190815260200160002060006101000a81548173ffffffffffffffffffffffffffffffffffffffff021916908373ffffffffffffffffffffffffffffffffffffffff160217905550808273ffffffffffffffffffffffffffffffffffffffff16600073ffffffffffffffffffffffffffffffffffffffff167fddf252ad1be2c89b69c2b068fc378daa952ba7f163c4a11628f55a4df523b3ef60405160405180910390a461328b60008383612eac565b5050565b6040518061028001604052806014905b606081526020019060019003908161329f5790505090565b6000604051905090565b600080fd5b600080fd5b60007fffffffff0000000000000000000000000000000000000000000000000000000082169050919050565b613300816132cb565b811461330b57600080fd5b50565b60008135905061331d816132f7565b92915050565b600060208284031215613339576133386132c1565b5b60006133478482850161330e565b91505092915050565b60008115159050919050565b61336581613350565b82525050565b6000602082019050613380600083018461335c565b92915050565b600081519050919050565b600082825260208201905092915050565b60005b838110156133c05780820151818401526020810190506133a5565b60008484015250505050565b6000601f19601f8301169050919050565b60006133e882613386565b6133f28185613391565b93506134028185602086016133a2565b61340b816133cc565b840191505092915050565b6000602082019050818103600083015261343081846133dd565b905092915050565b6000819050919050565b61344b81613438565b811461345657600080fd5b50565b60008135905061346881613442565b92915050565b600060208284031215613484576134836132c1565b5b600061349284828501613459565b91505092915050565b600073ffffffffffffffffffffffffffffffffffffffff82169050919050565b60006134c68261349b565b9050919050565b6134d6816134bb565b82525050565b60006020820190506134f160008301846134cd565b92915050565b613500816134bb565b811461350b57600080fd5b50565b60008135905061351d816134f7565b92915050565b6000806040838503121561353a576135396132c1565b5b60006135488582860161350e565b925050602061355985828601613459565b9150509250929050565b61356c81613438565b82525050565b60006020820190506135876000830184613563565b92915050565b6000806000606084860312156135a6576135a56132c1565b5b60006135b48682870161350e565b93505060206135c58682870161350e565b92505060406135d686828701613459565b9150509250925092565b60006135eb8261349b565b9050919050565b6135fb816135e0565b811461360657600080fd5b50565b600081359050613618816135f2565b92915050565b600060208284031215613634576136336132c1565b5b600061364284828501613609565b91505092915050565b600060208284031215613661576136606132c1565b5b600061366f8482850161350e565b91505092915050565b6000806040838503121561368f5761368e6132c1565b5b600061369d85828601613459565b92505060206136ae85828601613609565b9150509250929050565b6136c181613350565b81146136cc57600080fd5b50565b6000813590506136de816136b8565b92915050565b600080604083850312156136fb576136fa6132c1565b5b60006137098582860161350e565b925050602061371a858286016136cf565b9150509250929050565b600080fd5b600080fd5b7f4e487b7100000000000000000000000000000000000000000000000000000000600052604160045260246000fd5b613766826133cc565b810181811067ffffffffffffffff821117156137855761378461372e565b5b80604052505050565b60006137986132b7565b90506137a4828261375d565b919050565b600067ffffffffffffffff8211156137c4576137c361372e565b5b6137cd826133cc565b9050602081019050919050565b82818337600083830152505050565b60006137fc6137f7846137a9565b61378e565b90508281526020810184848401111561381857613817613729565b5b6138238482856137da565b509392505050565b600082601f8301126138405761383f613724565b5b81356138508482602086016137e9565b91505092915050565b60008060008060808587031215613873576138726132c1565b5b60006138818782880161350e565b94505060206138928782880161350e565b93505060406138a387828801613459565b925050606085013567ffffffffffffffff8111156138c4576138c36132c6565b5b6138d08782880161382b565b91505092959194509250565b600080604083850312156138f3576138f26132c1565b5b60006139018582860161350e565b92505060206139128582860161350e565b9150509250929050565b60006040820190506139316000830185613563565b61393e6020830184613563565b9392505050565b7f4e487b7100000000000000000000000000000000000000000000000000000000600052602260045260246000fd5b6000600282049050600182168061398c57607f821691505b60208210810361399f5761399e613945565b5b50919050565b7f4552433732313a20617070726f76616c20746f2063757272656e74206f776e6560008201527f7200000000000000000000000000000000000000000000000000000000000000602082015250565b6000613a01602183613391565b9150613a0c826139a5565b604082019050919050565b60006020820190508181036000830152613a30816139f4565b9050919050565b7f4552433732313a20617070726f76652063616c6c6572206973206e6f7420746f60008201527f6b656e206f776e6572206e6f7220617070726f76656420666f7220616c6c0000602082015250565b6000613a93603e83613391565b9150613a9e82613a37565b604082019050919050565b60006020820190508181036000830152613ac281613a86565b9050919050565b7f4552433732313a2063616c6c6572206973206e6f7420746f6b656e206f776e6560008201527f72206e6f7220617070726f766564000000000000000000000000000000000000602082015250565b6000613b25602e83613391565b9150613b3082613ac9565b604082019050919050565b60006020820190508181036000830152613b5481613b18565b9050919050565b613b64816135e0565b82525050565b6000602082019050613b7f6000830184613b5b565b92915050565b7f6e6f20726577617264732063757272656e746c79000000000000000000000000600082015250565b6000613bbb601483613391565b9150613bc682613b85565b602082019050919050565b60006020820190508181036000830152613bea81613bae565b9050919050565b7f4552433732313a20696e76616c696420746f6b656e2049440000000000000000600082015250565b6000613c27601883613391565b9150613c3282613bf1565b602082019050919050565b60006020820190508181036000830152613c5681613c1a565b9050919050565b7f4552433732313a2061646472657373207a65726f206973206e6f74206120766160008201527f6c6964206f776e65720000000000000000000000000000000000000000000000602082015250565b6000613cb9602983613391565b9150613cc482613c5d565b604082019050919050565b60006020820190508181036000830152613ce881613cac565b9050919050565b7f6e6f74206c6f7474657279206f776e6572000000000000000000000000000000600082015250565b6000613d25601183613391565b9150613d3082613cef565b602082019050919050565b60006020820190508181036000830152613d5481613d18565b9050919050565b7f6c6f747465727920646964206e6f742077696e00000000000000000000000000600082015250565b6000613d91601383613391565b9150613d9c82613d5b565b602082019050919050565b60006020820190508181036000830152613dc081613d84565b9050919050565b7f726577617264732063616e6e6f74206265207265706561746564000000000000600082015250565b6000613dfd601a83613391565b9150613e0882613dc7565b602082019050919050565b60006020820190508181036000830152613e2c81613df0565b9050919050565b7f4e487b7100000000000000000000000000000000000000000000000000000000600052603260045260246000fd5b600081905092915050565b6000613e7882613386565b613e828185613e62565b9350613e928185602086016133a2565b80840191505092915050565b6000613eaa828d613e6d565b9150613eb6828c613e6d565b9150613ec2828b613e6d565b9150613ece828a613e6d565b9150613eda8289613e6d565b9150613ee68288613e6d565b9150613ef28287613e6d565b9150613efe8286613e6d565b9150613f0a8285613e6d565b9150613f168284613e6d565b91508190509b9a5050505050505050505050565b6000613f36828e613e6d565b9150613f42828d613e6d565b9150613f4e828c613e6d565b9150613f5a828b613e6d565b9150613f66828a613e6d565b9150613f728289613e6d565b9150613f7e8288613e6d565b9150613f8a8287613e6d565b9150613f968286613e6d565b9150613fa28285613e6d565b9150613fae8284613e6d565b91508190509c9b505050505050505050505050565b7f7b226e616d65223a20224574686572204c6f74746f2023000000000000000000600082015250565b6000613ff9601783613e62565b915061400482613fc3565b601782019050919050565b7f222c2022696d616765223a2022646174613a696d6167652f7376672b786d6c3b60008201527f6261736536342c00000000000000000000000000000000000000000000000000602082015250565b600061406b602783613e62565b91506140768261400f565b602782019050919050565b7f227d000000000000000000000000000000000000000000000000000000000000600082015250565b60006140b7600283613e62565b91506140c282614081565b600282019050919050565b60006140d882613fec565b91506140e48285613e6d565b91506140ef8261405e565b91506140fb8284613e6d565b9150614106826140aa565b91508190509392505050565b7f646174613a6170706c69636174696f6e2f6a736f6e3b6261736536342c000000600082015250565b6000614148601d83613e62565b915061415382614112565b601d82019050919050565b60006141698261413b565b91506141758284613e6d565b915081905092915050565b60008151905061418f81613442565b92915050565b6000602082840312156141ab576141aa6132c1565b5b60006141b984828501614180565b91505092915050565b7f4f776e61626c653a206e6577206f776e657220697320746865207a65726f206160008201527f6464726573730000000000000000000000000000000000000000000000000000602082015250565b600061421e602683613391565b9150614229826141c2565b604082019050919050565b6000602082019050818103600083015261424d81614211565b9050919050565b7f706c61792074797065206572726f720000000000000000000000000000000000600082015250565b600061428a600f83613391565b915061429582614254565b602082019050919050565b600060208201905081810360008301526142b98161427d565b9050919050565b7f6e756d626572206572726f720000000000000000000000000000000000000000600082015250565b60006142f6600c83613391565b9150614301826142c0565b602082019050919050565b60006020820190508181036000830152614325816142e9565b9050919050565b7f4e487b7100000000000000000000000000000000000000000000000000000000600052601160045260246000fd5b600061436682613438565b91507fffffffffffffffffffffffffffffffffffffffffffffffffffffffffffffffff82036143985761439761432c565b5b600182019050919050565b60006143ae82613438565b91506143b983613438565b9250817fffffffffffffffffffffffffffffffffffffffffffffffffffffffffffffffff04831182151516156143f2576143f161432c565b5b828202905092915050565b7f4e487b7100000000000000000000000000000000000000000000000000000000600052601260045260246000fd5b600061443782613438565b915061444283613438565b925082614452576144516143fd565b5b828204905092915050565b600061446882613438565b915061447383613438565b925082820190508082111561448b5761448a61432c565b5b92915050565b60006060820190506144a66000830186613563565b6144b36020830185613563565b6144c06040830184613563565b949350505050565b7f4552433732313a207472616e736665722066726f6d20696e636f72726563742060008201527f6f776e6572000000000000000000000000000000000000000000000000000000602082015250565b6000614524602583613391565b915061452f826144c8565b604082019050919050565b6000602082019050818103600083015261455381614517565b9050919050565b7f4552433732313a207472616e7366657220746f20746865207a65726f2061646460008201527f7265737300000000000000000000000000000000000000000000000000000000602082015250565b60006145b6602483613391565b91506145c18261455a565b604082019050919050565b600060208201905081810360008301526145e5816145a9565b9050919050565b60006145f782613438565b915061460283613438565b925082820390508181111561461a5761461961432c565b5b92915050565b7f4f776e61626c653a2063616c6c6572206973206e6f7420746865206f776e6572600082015250565b6000614656602083613391565b915061466182614620565b602082019050919050565b6000602082019050818103600083015261468581614649565b9050919050565b7f4552433732313a20617070726f766520746f2063616c6c657200000000000000600082015250565b60006146c2601983613391565b91506146cd8261468c565b602082019050919050565b600060208201905081810360008301526146f1816146b5565b9050919050565b7f4552433732313a207472616e7366657220746f206e6f6e20455243373231526560008201527f63656976657220696d706c656d656e7465720000000000000000000000000000602082015250565b6000614754603283613391565b915061475f826146f8565b604082019050919050565b6000602082019050818103600083015261478381614747565b9050919050565b600061479582613438565b91506147a083613438565b9250826147b0576147af6143fd565b5b828206905092915050565b600081519050919050565b600081905092915050565b60006147dc826147bb565b6147e681856147c6565b93506147f68185602086016133a2565b80840191505092915050565b6000819050919050565b61481d61481882613438565b614802565b82525050565b600061482f82856147d1565b915061483b828461480c565b6020820191508190509392505050565b600082825260208201905092915050565b6000614867826147bb565b614871818561484b565b93506148818185602086016133a2565b61488a816133cc565b840191505092915050565b60006080820190506148aa60008301876134cd565b6148b760208301866134cd565b6148c46040830185613563565b81810360608301526148d6818461485c565b905095945050505050565b6000815190506148f0816132f7565b92915050565b60006020828403121561490c5761490b6132c1565b5b600061491a848285016148e1565b91505092915050565b7f4552433732313a206d696e7420746f20746865207a65726f2061646472657373600082015250565b6000614959602083613391565b915061496482614923565b602082019050919050565b600060208201905081810360008301526149888161494c565b9050919050565b7f4552433732313a20746f6b656e20616c7265616479206d696e74656400000000600082015250565b60006149c5601c83613391565b91506149d08261498f565b602082019050919050565b600060208201905081810360008301526149f4816149b8565b905091905056fe3c2f746578743e3c74657874207472616e73666f726d3d227472616e736c6174652831342e31372035372e3037292220666f6e742d73697a653d22342e38223e416d6f756e743a203c74657874207472616e73666f726d3d227472616e736c6174652833312e3035203134302e3235292220666f6e742d73697a653d223732223e3c74657874207472616e73666f726d3d227472616e736c61746528382e3635203134302e3235292220666f6e742d73697a653d223732223e3c2f746578743e3c74657874207472616e73666f726d3d227472616e736c6174652831342e31372034382e3537292220666f6e742d73697a653d22342e38223e4f70656e3a204142434445464748494a4b4c4d4e4f505152535455565758595a6162636465666768696a6b6c6d6e6f707172737475767778797a303132333435363738392b2f3c73766720786d6c6e733d22687474703a2f2f7777772e77332e6f72672f323030302f737667222076696577426f783d22302030203134312e3733203137302e3038223e3c74657874207472616e73666f726d3d227472616e736c6174652831342e31372033312e3537292220666f6e742d73697a653d22342e38223e506572696f643a203c74657874207472616e73666f726d3d227472616e736c6174652835312e3037203134302e3235292220666f6e742d73697a653d223732223e205765693c2f746578743e3c74657874207472616e73666f726d3d227472616e736c6174652831342e31372038322e353729222066696c6c3d22236666303030302220666f6e742d73697a653d22342e38223e52656465656d3a203c74657874207472616e73666f726d3d227472616e736c6174652831342e31372037342e303729222066696c6c3d22236666303030302220666f6e742d73697a653d22342e38223e57696e20416d6f756e743a203c2f746578743e3c74657874207472616e73666f726d3d227472616e736c6174652831342e31372034302e3037292220666f6e742d73697a653d22342e38223e436f64653a203c74657874207472616e73666f726d3d227472616e736c6174652831342e31372036352e353729222066696c6c3d22236666303030302220666f6e742d73697a653d22342e38223e57696e204e756d6265723a20a2646970667358221220254c03af6ad346a415a081542d1a1d0af5d2171fe7c4427f31a4a58c1b15349d64736f6c63430008100033608060405234801561001057600080fd5b5061002d61002261003260201b60201c565b61003a60201b60201c565b6100fe565b600033905090565b60008060009054906101000a900473ffffffffffffffffffffffffffffffffffffffff169050816000806101000a81548173ffffffffffffffffffffffffffffffffffffffff021916908373ffffffffffffffffffffffffffffffffffffffff1602179055508173ffffffffffffffffffffffffffffffffffffffff168173ffffffffffffffffffffffffffffffffffffffff167f8be0079c531659141344cd1fd0a4f28419497f9722a3daafe3b4186f6b6457e060405160405180910390a35050565b610a948061010d6000396000f3fe6080604052600436106100555760003560e01c806351cff8d91461005a578063715018a6146100835780638da5cb5b1461009a578063e3a9db1a146100c5578063f2fde38b14610102578063f340fa011461012b575b600080fd5b34801561006657600080fd5b50610081600480360381019061007c91906106b2565b610147565b005b34801561008f57600080fd5b50610098610253565b005b3480156100a657600080fd5b506100af610267565b6040516100bc9190610700565b60405180910390f35b3480156100d157600080fd5b506100ec60048036038101906100e79190610747565b610290565b6040516100f9919061078d565b60405180910390f35b34801561010e57600080fd5b5061012960048036038101906101249190610747565b6102d9565b005b61014560048036038101906101409190610747565b61035c565b005b61014f610411565b6000600160008373ffffffffffffffffffffffffffffffffffffffff1673ffffffffffffffffffffffffffffffffffffffff1681526020019081526020016000205490506000600160008473ffffffffffffffffffffffffffffffffffffffff1673ffffffffffffffffffffffffffffffffffffffff16815260200190815260200160002081905550610201818373ffffffffffffffffffffffffffffffffffffffff1661048f90919063ffffffff16565b8173ffffffffffffffffffffffffffffffffffffffff167f7084f5476618d8e60b11ef0d7d3f06914655adb8793e28ff7f018d4c76d505d582604051610247919061078d565b60405180910390a25050565b61025b610411565b6102656000610583565b565b60008060009054906101000a900473ffffffffffffffffffffffffffffffffffffffff16905090565b6000600160008373ffffffffffffffffffffffffffffffffffffffff1673ffffffffffffffffffffffffffffffffffffffff168152602001908152602001600020549050919050565b6102e1610411565b600073ffffffffffffffffffffffffffffffffffffffff168173ffffffffffffffffffffffffffffffffffffffff1603610350576040517f08c379a00000000000000000000000000000000000000000000000000000000081526004016103479061082b565b60405180910390fd5b61035981610583565b50565b610364610411565b600034905080600160008473ffffffffffffffffffffffffffffffffffffffff1673ffffffffffffffffffffffffffffffffffffffff16815260200190815260200160002060008282546103b8919061087a565b925050819055508173ffffffffffffffffffffffffffffffffffffffff167f2da466a7b24304f47e87fa2e1e5a81b9831ce54fec19055ce277ca2f39ba42c482604051610405919061078d565b60405180910390a25050565b610419610647565b73ffffffffffffffffffffffffffffffffffffffff16610437610267565b73ffffffffffffffffffffffffffffffffffffffff161461048d576040517f08c379a0000000000000000000000000000000000000000000000000000000008152600401610484906108fa565b60405180910390fd5b565b804710156104d2576040517f08c379a00000000000000000000000000000000000000000000000000000000081526004016104c990610966565b60405180910390fd5b60008273ffffffffffffffffffffffffffffffffffffffff16826040516104f8906109b7565b60006040518083038185875af1925050503d8060008114610535576040519150601f19603f3d011682016040523d82523d6000602084013e61053a565b606091505b505090508061057e576040517f08c379a000000000000000000000000000000000000000000000000000000000815260040161057590610a3e565b60405180910390fd5b505050565b60008060009054906101000a900473ffffffffffffffffffffffffffffffffffffffff169050816000806101000a81548173ffffffffffffffffffffffffffffffffffffffff021916908373ffffffffffffffffffffffffffffffffffffffff1602179055508173ffffffffffffffffffffffffffffffffffffffff168173ffffffffffffffffffffffffffffffffffffffff167f8be0079c531659141344cd1fd0a4f28419497f9722a3daafe3b4186f6b6457e060405160405180910390a35050565b600033905090565b600080fd5b600073ffffffffffffffffffffffffffffffffffffffff82169050919050565b600061067f82610654565b9050919050565b61068f81610674565b811461069a57600080fd5b50565b6000813590506106ac81610686565b92915050565b6000602082840312156106c8576106c761064f565b5b60006106d68482850161069d565b91505092915050565b60006106ea82610654565b9050919050565b6106fa816106df565b82525050565b600060208201905061071560008301846106f1565b92915050565b610724816106df565b811461072f57600080fd5b50565b6000813590506107418161071b565b92915050565b60006020828403121561075d5761075c61064f565b5b600061076b84828501610732565b91505092915050565b6000819050919050565b61078781610774565b82525050565b60006020820190506107a2600083018461077e565b92915050565b600082825260208201905092915050565b7f4f776e61626c653a206e6577206f776e657220697320746865207a65726f206160008201527f6464726573730000000000000000000000000000000000000000000000000000602082015250565b60006108156026836107a8565b9150610820826107b9565b604082019050919050565b6000602082019050818103600083015261084481610808565b9050919050565b7f4e487b7100000000000000000000000000000000000000000000000000000000600052601160045260246000fd5b600061088582610774565b915061089083610774565b92508282019050808211156108a8576108a761084b565b5b92915050565b7f4f776e61626c653a2063616c6c6572206973206e6f7420746865206f776e6572600082015250565b60006108e46020836107a8565b91506108ef826108ae565b602082019050919050565b60006020820190508181036000830152610913816108d7565b9050919050565b7f416464726573733a20696e73756666696369656e742062616c616e6365000000600082015250565b6000610950601d836107a8565b915061095b8261091a565b602082019050919050565b6000602082019050818103600083015261097f81610943565b9050919050565b600081905092915050565b50565b60006109a1600083610986565b91506109ac82610991565b600082019050919050565b60006109c282610994565b9150819050919050565b7f416464726573733a20756e61626c6520746f2073656e642076616c75652c207260008201527f6563697069656e74206d61792068617665207265766572746564000000000000602082015250565b6000610a28603a836107a8565b9150610a33826109cc565b604082019050919050565b60006020820190508181036000830152610a5781610a1b565b905091905056fea2646970667358221220b507137df0cc9c3335b8ea8bab5d30797328566ab116314816d0659fa5ba2de064736f6c63430008100033",
  "linkReferences": {},
  "deployedLinkReferences": {}
}